:100000000C9458000C9480000C9480000C94800098
:100010000C9480000C9480000C9480000C94800060
:100020000C9480000C9480000C9480000C94800050
:100030000C9480000C9480000C9480000C94800040
:100040000C94C4040C9480000C946C060C9446062A
:100050000C9480000C9480000C9480000C94800020
:100060000C940E050C948000000000002500280070
:100070002B00040404040404040402020202020229
:10008000030303030303010204081020408001025C
:1000900004081020010204081020000000080002DB
:1000A0000100000304070000000000000000D90B5D
:1000B00011241FBECFEFD8E0DEBFCDBF25E0A6E6FE
:1000C000B2E001C01D92AD33B207E1F712E0A0E04B
:1000D000B1E0E6EAFDE102C005900D92A636B10757
:1000E000D9F710E0C8E5D0E004C02197FE010E94D6
:1000F000B90CC735D107C9F70E942A090C94D10E53
:100100000C940000FC01538D448D252F30E0842F8A
:1001100090E0821B930B541710F0CF96089501972F
:100120000895FC01918D828D981761F0828DDF0119
:10013000A80FB11D5D968C91928D9F5F9F73928FDA
:1001400090E008958FEF9FEF0895FC01918D828DCF
:10015000981731F0828DE80FF11D858D90E008959C
:100160008FEF9FEF0895FC01918D228D892F90E0F4
:10017000805C9F4F821B91098F739927089580E0BF
:1001800090E0892B29F00E943C0681110C9400001C
:1001900008953FB7F8948091B0029091B102A09178
:1001A000B202B091B30226B5A89B05C02F3F19F04B
:1001B0000196A11DB11D3FBFBA2FA92F982F8827E7
:1001C000820F911DA11DB11DBC01CD0142E0660F42
:1001D000771F881F991F4A95D1F7089508950895AC
:1001E00085ED8093BC008091BC0084FDFCCF109213
:1001F0001E03089540918602262F30E0240F311D02
:1002000021323105DCF420911E032430C9F4FC01B5
:1002100080E090E0861758F4309186022191DC014D
:10022000AA59BD4FA30FB11D2C930196F3CF809116
:100230008602680F6093860280E0089581E0089549
:1002400082E008950895E091AE028091AD02E81732
:1002500030F4F0E0E852FD4F808190E008958FEF98
:100260009FEF08959091AE028091AD02981750F4DF
:10027000E92FF0E0E852FD4F208130E09F5F90933E
:10028000AE0202C02FEF3FEFC90108958091AD0289
:1002900090E02091AE02821B91090895CF92DF92E7
:1002A000EF92FF920F931F93CF93DF937C01CB01CB
:1002B0008A012091B402222389F0EB016B01C40E64
:1002C000D51ECC15DD0569F06991D701ED91FC9142
:1002D0000190F081E02DC7010995F3CF642F0E94B2
:1002E000FA00C801DF91CF911F910F91FF90EF901D
:1002F000DF90CF900895CF93DF931F92CDB7DEB7F5
:1003000069832091B4022223D1F02091D7022032B8
:1003100040F021E030E0FC013383228380E090E074
:1003200015C08091B502E82FF0E0EA54FD4F9981A5
:1003300090838F5F8093B5028093D70205C061E000
:10034000CE0101960E94FA0081E090E00F90DF91CB
:10035000CF910895089580E090E008950E94A60E40
:100360001092AE021092AD021092B5021092D70216
:1003700010921E0381E080931D031092180382E106
:100380000E94230783E10E942307E9EBF0E08081CC
:100390008E7F808380818D7F808388E48093B80006
:1003A00085E48093BC008EEE90E09093AC02809345
:1003B000AB028FEE90E09093AA028093A902089579
:1003C000FC01848DDF01A80FB11DA35ABF4F2C91F2
:1003D000848D90E001968F739927848FA689B789C1
:1003E0002C93A089B1898C91837080648C93938DB8
:1003F000848D981306C00288F389E02D80818F7D5B
:1004000080830895EF92FF920F931F93CF93DF9312
:10041000EC0181E0888F9B8D8C8D981305C0E88955
:10042000F989808185FD26C0F62E0B8D10E00F5FC7
:100430001F4F0F731127E02E8C8DE8120CC00FB6E2
:1004400007FCFACFE889F989808185FFF5CFCE01D5
:100450000E94E001F1CF8B8DFE01E80FF11DE35A00
:10046000FF4FF0829FB7F8940B8FEA89FB89808158
:1004700080620AC09FB7F894EE89FF896083E8899B
:10048000F98980818370806480839FBF81E090E0E0
:10049000DF91CF911F910F91FF90EF900895CF932F
:1004A000DF93EC01888D8823C9F0EA89FB8980817C
:1004B00085FD05C0A889B9898C9186FD0FC00FB64E
:1004C00007FCF5CF808185FFF2CFA889B9898C918F
:1004D00085FFEDCFCE010E94E001E7CFDF91CF9104
:1004E00008958F929F92AF92BF92CF92DF92EF9238
:1004F000FF926B017C010E94C9004B015C01C11499
:10050000D104E104F104F1F00E94C900DC01CB0147
:1005100088199909AA09BB09883E9340A105B1052C
:1005200070F321E0C21AD108E108F10888EE880EC4
:1005300083E0981EA11CB11CC114D104E104F10494
:1005400019F7DDCFFF90EF90DF90CF90BF90AF9085
:100550009F908F9008956F927F928F929F92AF920B
:10056000BF92CF92DF92EF92FF920F931F93CF93A0
:10057000DF9300D000D000D0CDB7DEB78C01B62E0F
:10058000A72E742E690186E0E6E0F1E0DE01119607
:1005900001900D928A95E1F7E12CF12C66E084E25E
:1005A0000E9469071092AE028093AD0281110DC0C6
:1005B00061E070E080E090E00E9471028FEFE81A45
:1005C000F80AC114D10449F4E9CFF801828193817A
:1005D0000E940F0880FFECCF06C0CE14DF04F0F6B7
:1005E0008FEF9FEF3EC0F801828193810E940F0838
:1005F00081117BC0F801828193810E940F088111D3
:1006000074C0F801828193810E940F088F3F09F026
:100610006CC0F801828193810E940F08682E81E0EE
:100620008093B40284E28093D6021092B5021092B5
:10063000D702CE0101967C014E0197E0890E911CF4
:10064000F70161917F01F801828193810E9407087F
:100650008E149F04A9F7F801828193810E94AB0751
:10066000862DE12CF12C98E0992E980E692DF0E260
:10067000F91508F460E284E20E9469071092AE0264
:100680008093AD0281110DC061E070E080E090E0E8
:100690000E9471028FEFE81AF80AC114D10449F4DC
:1006A000E5CFF801828193810E940F0880FFECCF93
:1006B00006C0CE14DF04D0F68FEF9FEF5FC0F801C5
:1006C000828193810E940F08811127C0F8018281E5
:1006D00093810E940F08811120C0F80182819381CB
:1006E0000E940F088F3FC9F403C08DEF9FEFB9CF71
:1006F000F801828193810E940F08F82EF80182810F
:1007000093810E940F088F0D41F4F801E4808281EB
:1007100093810E940F08853D19F08DEF9FEF2EC049
:10072000F801828193810E940F0891E09E0D981339
:10073000F4CFFA94FA947F14F8F0F6EDEF0E9B2CB8
:10074000CB2CDA2CF801828193812C2D29192F15BD
:1007500038F40E940F08F60181936F01E80EF2CF82
:100760000E940F088E0DC9F6F801828193810E94C4
:100770000F088F2D90E002C08CEF9FEF26960FB6EA
:10078000F894DEBF0FBECDBFDF91CF911F910F91C7
:10079000FF90EF90DF90CF90BF90AF909F908F90A1
:1007A0007F906F9008956F927F928F929F92AF92F9
:1007B000BF92CF92DF92EF92FF920F931F93CF934E
:1007C000DF93CDB7DEB72C970FB6F894DEBF0FBE20
:1007D000CDBF7C016B01942E5901FB018081F70193
:1007E000848381E08093B40284E28093D6021092E5
:1007F000B5021092D70260E0828193810E940708BF
:1008000060E0F701828193810E9407086FEFF70192
:10081000828193810E94070811E0100F190D612F4A
:10082000F701828193810E940708612F6195F7018A
:10083000828193810E94070864EDF7018281938190
:100840000E9407083601690C711C14EDC614D70408
:1008500099F04601F6016081F701828193810E943F
:100860000708811102C08DEF74C0FFEFCF1ADF0AB5
:10087000F4018081180FEACF65014501800E911CBB
:10088000F70182819381C814D90471F05601F601F1
:1008900060810E940708882331F3FFEFCF1ADF0A37
:1008A000F5018081180FECCF612F61950E94070838
:1008B00060E0F701828193810E940708F70182813D
:1008C00093810E94AB0786E0ECE0F1E0DE01179631
:1008D00001900D928A95E1F70BE010E067E084E269
:1008E0000E9469071092AE028093AD0281110BC085
:1008F00061E070E080E090E00E9471020150110917
:1009000069F78EEF26C0F701828193810E940F085C
:1009100080FFEECF8E010F5F1F4F5E01F7E0AF0E3D
:10092000B11C6801F701828193810E940F08F801D0
:1009300081938F01EA15FB05A9F746E050E0BF015E
:10094000C6010E94AB0E21E0892B09F420E0822F22
:1009500081952C960FB6F894DEBF0FBECDBFDF9108
:10096000CF911F910F91FF90EF90DF90CF90BF90AC
:10097000AF909F908F907F906F90089564EF71E09B
:1009800080E090E00C9471021F920F920FB60F92CC
:1009900011242F933F938F939F93AF93BF93809195
:1009A0001F0390912003A0912103B0912203309165
:1009B000AF0223E0230F2D3720F40196A11DB11DB6
:1009C00005C026E8230F0296A11DB11D2093AF029A
:1009D00080931F0390932003A0932103B0932203DD
:1009E0008091B0029091B102A091B202B091B30295
:1009F0000196A11DB11D8093B0029093B102A09306
:100A0000B202B093B302BF91AF919F918F913F918A
:100A10002F910F900FBE0F901F9018951F920F925D
:100A20000FB60F9211242F933F934F935F936F93C1
:100A30007F938F939F93AF93BF93EF93FF93809197
:100A4000B900887F803609F49CC068F5883209F4C3
:100A50005BC090F4803109F454C038F4882309F461
:100A6000F6C0883009F44DC0F6C0883109F44CC096
:100A7000803209F45DC0EFC0803409F468C048F4E6
:100A8000803309F455C0883309F0E5C080931C0316
:100A9000D8C0803509F44FC0883509F45DC088346A
:100AA00009F0D9C0D6C0883909F4C7C0A8F488377E
:100AB00009F467C038F4883609F463C0803709F454
:100AC00060C0C9C0883809F4B8C0803909F45FC073
:100AD000803809F0C0C05BC0803B09F486C038F4A0
:100AE000803A09F466C0883A09F47FC0B4C0803CFB
:100AF00009F4A7C0883C09F4A4C0883B09F48AC063
:100B0000AAC08091190310C090911B0380911A0311
:100B1000981770F5E0911B0381E08E0F80931B0303
:100B2000F0E0E850FD4F80818093BB0085EC86C0EB
:100B300080931C038EC0E0911B0381E08E0F809395
:100B40001B038091BB00F0E0E850FD4F8083909143
:100B50001B0380911A036EC0E0911B0381E08E0F8E
:100B600080931B038091BB00F0E0E850FD4F808331
:100B700080911D0381116DC081E08093180384EA88
:100B800061C083E080931E031092A802CFCF8091B2
:100B9000A802803208F051C0E091A80281E08E0FD7
:100BA0008093A8028091BB00F0E0E857FD4F80835E
:100BB000BDCF85EC8093BC0010921E038091A802EB
:100BC000803230F4E091A802F0E0E857FD4F108247
:100BD0006091A80270E0E091A902F091AA0288E871
:100BE00092E009951092A80236C084E080931E031B
:100BF0001092870210928602E091AB02F091AC0253
:100C0000099580918602811105C081E0809386025A
:100C100010926602E091870281E08E0F8093870236
:100C2000F0E0EA59FD4F80818093BB0090918702EC
:100C300080918602981708F479CF85E88093BC00EC
:100C40000AC085EC8093BC0010921E0304C0109271
:100C50001C030E94F000FF91EF91BF91AF919F9113
:100C60008F917F916F915F914F913F912F910F9055
:100C70000FBE0F901F90189583E293E00E94B3007F
:100C800021E0892B09F420E0822F08951F920F9212
:100C90000FB60F9211242F933F934F935F936F934F
:100CA0007F938F939F93AF93BF93EF93FF9383E2D1
:100CB00093E00E94E001FF91EF91BF91AF919F916E
:100CC0008F917F916F915F914F913F912F910F90F5
:100CD0000FBE0F901F9018951F920F920FB60F9294
:100CE00011242F938F939F93EF93FF93E0913303FE
:100CF000F09134038081E0913903F0913A0382FD51
:100D000012C0908180913C038F5F8F7320913D03CF
:100D1000821751F0E0913C03F0E0ED5DFC4F958FC0
:100D200080933C0301C08081FF91EF919F918F914F
:100D30002F910F900FBE0F901F901895CF92DF92BA
:100D4000EF92FF920F931F93CF93DF936C017A0181
:100D50008B01C0E0D0E0CE15DF0581F0D8016D91A8
:100D60008D01D601ED91FC910190F081E02DC6013D
:100D70000995892B11F02196EECF7E01C701DF91F5
:100D8000CF911F910F91FF90EF90DF90CF9008953A
:100D9000E3E2F3E0A089B18982E08C93A485B58574
:100DA0001C92A685B78580E18C93108EA489B589A5
:100DB00086E08C93A289B3898C9180618C93A289FF
:100DC000B3898C9188608C93A289B3898C91806857
:100DD0008C930288F389E02D80818F7D8083089534
:100DE000CF92DF92EF92FF920F931F932FB7F89459
:100DF000C0901F03D0902003E0902103F0902203C5
:100E00002FBFDC01CB018C0D9D1DAE1DBF1D4FB74B
:100E1000F89400911F031091200320912103309139
:100E200022034FBF0C151D052E053F0528F0801726
:100E30009107A207B30758F71F910F91FF90EF900A
:100E4000DF90CF90089590E0FC01E656FF4F24918B
:100E5000FC01EA57FF4F3491FC01EE58FF4FE4913B
:100E6000EE23B1F1222339F1233091F038F421300F
:100E7000A9F0223001F584B58F7D12C0273091F0A2
:100E80002830A1F02430B9F4809180008F7D03C018
:100E9000809180008F77809380000DC084B58F771C
:100EA00084BD09C08091B0008F7703C08091B000ED
:100EB0008F7D8093B000F0E0EE0FFF1FE859FF4FE9
:100EC000A591B4918FB7F894EC91E32BEC938FBF7D
:100ED000089590911E039111FCCF91E090931E0311
:100EE00090931D032FEF20931C0310921B03260FDA
:100EF00020931A039093190390911903880F892B5B
:100F00008093190380911803813061F410921803C3
:100F1000809119038093BB008091BC0083FDF8CFC2
:100F200085EC01C085EE8093BC0080911E0381306A
:100F3000E1F380911B03861710F460911B03A8EF67
:100F4000B2E0E8EDF2E080E0861721F09D91919308
:100F50008F5FFACF08953091D702313208F04BC03D
:100F600080911E038111FCCF9091D60222E0209344
:100F70001E0321E020931D032FEF20931C031092EA
:100F80001B0330931A03E6EBF2E0A8EFB2E020E097
:100F9000321721F041914D932F5FFACF1092190330
:100FA00020911903990F922B909319039091180394
:100FB000913061F410921803909119039093BB0043
:100FC0009091BC0093FDF8CF95EC01C095EE909305
:100FD000BC0090911E039230E1F390911C039F3F5F
:100FE00079F080911C03803241F080911C038033A2
:100FF00031F084E005C081E003C082E001C083E0FD
:101000001092B5021092D7021092B4020895DC013A
:10101000ED91FC910190F081E02D09950895DC019E
:10102000ED91FC910284F385E02D099508950F93CD
:101030001F93CF93DF93EC0188819981009729F06A
:101040002A813B812617370788F48B016F5F7F4F1A
:101050000E94E00D009761F0998388831B830A83C7
:101060002C813D81232B11F4FC01108281E001C011
:1010700080E0DF91CF911F910F910895EF92FF9241
:101080000F931F93CF93DF936115710511F480E0E7
:101090001CC041155105C1F07B01EC018C819D8183
:1010A0008A01080F191FB801CE010E941708882372
:1010B00071F3288139818C819D81B701820F931F43
:1010C0000E94CA0E1D830C8381E0DF91CF911F9196
:1010D0000F91FF90EF900895CF93DF93EC018881FB
:1010E0009981009711F00E94570D198218821D8274
:1010F0001C821B821A82DF91CF910895EF92FF929A
:101100000F931F93CF93DF93EC01198218821B82F8
:101110001A821D821C826115710521F18B01FB0170
:1011200001900020E9F731977F01E61AF70AB7012D
:101130000E941708811109C0CE01DF91CF911F9144
:101140000F91FF90EF900C946C08FD82EC82B80137
:1011500088819981DF91CF911F910F91FF90EF903E
:101160000C94CA0EDF91CF911F910F91FF90EF90D9
:1011700008956115710579F0FB0101900020E9F7F0
:101180003197AF01461B570BDC01ED91FC910280BA
:10119000F381E02D099480E090E00895CF93DF93F0
:1011A000BC0183E293E00E94B908EC0161E571E0C3
:1011B00083E293E00E94B9088C0F9D1FDF91CF91CD
:1011C00008958F929F92AF92BF92EF92FF920F93EA
:1011D0001F93CF93DF93CDB7DEB7A1970FB6F894E7
:1011E000DEBF0FBECDBF7C01FA01CB0119A22230B8
:1011F00008F42AE08E010F5D1F4F822E912CA12C46
:10120000B12CBF01A50194010E94600CF901CA0133
:10121000015011096A3014F4605D01C0695CD801A5
:101220006C93232B242B252B61F7B801C7010E9457
:10123000B908A1960FB6F894DEBF0FBECDBFDF91FF
:10124000CF911F910F91FF90EF90BF90AF909F9023
:101250008F900895CF93DF93CDB7DEB76C970FB61D
:10126000F894DEBF0FBECDBF789484B5826084BD94
:1012700084B5816084BD85B5826085BD85B581609A
:1012800085BD80916E00816080936E001092810018
:1012900080918100826080938100809181008160D3
:1012A0008093810080918000816080938000809194
:1012B000B10084608093B1008091B0008160809320
:1012C000B00080917A00846080937A0080917A00E7
:1012D000826080937A0080917A00816080937A00A6
:1012E00080917A00806880937A001092C1001092F9
:1012F0000404109205041092060410920704109240
:10130000C2031092C3031092C4031092C50368EB8A
:101310007BE080E090E00E94F00683E293E090930F
:101320000304809302040E94C8062FB7F8948091AA
:101330001F0390912003A0912103B09122032FBF9E
:101340008093C2039093C303A093C403B093C503D7
:1013500062E471E080910204909103040E94B90854
:101360006AE070E080E090E00E94F00611E01093E7
:10137000D6030E94C80684E591E00E94CE088091C1
:10138000260590912705DC01ED91FC910190F081FB
:10139000E02D09958091260590912705DC01ED91BE
:1013A000FC910280F381E02D099582E0809327046F
:1013B0008091260590912705DC01ED91FC91048038
:1013C000F581E02D00E020E030E041E067E274E0EC
:1013D0000995811118C18091260590912705DC019E
:1013E000ED91FC910680F781E02D28EE33E04FEF80
:1013F00067E274E0099597FD06C1C0902704D0907C
:101400002804DC24CD24DC24E12CF12CFE2CED2C52
:10141000DC2CCC2480912904C82AFE2CED2CDC2C59
:10142000CC2480912A04C82AC114D104E104F10417
:1014300009F4E9C06BE571E083E293E00E94B9082A
:101440004F2D55276627772720E183E293E00E94FE
:10145000E10861E571E083E293E00E94B9086AE681
:1014600071E083E293E00E94B9084E2D50E060E005
:1014700070E02AE083E293E00E94E1086EE283E2FA
:1014800093E00E9402024D2D50E060E070E02AE0FF
:1014900083E293E00E94E10861E571E083E293E07A
:1014A0000E94B90882E38093270485E08093280492
:1014B0008FEF8093290410932A0480932B0480914A
:1014C000260590912705DC01ED91FC910480F581C2
:1014D000E02D00E020E030E045E067E274E00995AF
:1014E000811110C08091260590912705DC01ED91B6
:1014F000FC910680F781E02D28EE33E04FEF67E2A4
:1015000074E0099594E19093270481E08093280486
:101510009093290480932A048091260590912705B1
:10152000DC01ED91FC910480F581E02D00E020E0EC
:1015300030E044E067E274E00995811110C08091C9
:10154000260590912705DC01ED91FC910680F7813D
:10155000E02D28EE33E04FEF67E274E0099589E76C
:1015600091E00E94CE0887E0782E5E01BAE0AB0ED3
:10157000B11C9AE4692E552453944A2CFE013196ED
:101580007F01D501E72D1D92EA95E9F760922704C6
:1015900050922804109229048091260590912705E5
:1015A000DC01ED91FC910480F581E02D00E020E06C
:1015B00030E043E067E274E009958111F5C0809165
:1015C000260590912705DC01ED91FC910680F781BD
:1015D000E02D28EE33E04FEF67E274E0099597FDC8
:1015E000E3C080912704813009F0DEC010912C0403
:1015F000ADE2B4E04501F5018E2F8A19811750F450
:101600008D918193F9CF6AE072E083E293E00E94CA
:10161000B908FFCF82E292E00E94CE0860E372E058
:1016200083E293E00E94B908412F50E060E070E04F
:101630002AE083E293E00E94E1088DE392E00E94B9
:10164000CE0864E472E083E293E00E94B90863E5A7
:1016500071E0CE0147960E947E08882D841981177B
:1016600008F046C067E971E083E293E00E94B908A0
:10167000F401D1904F014D2D50E060E070E020E189
:1016800083E293E00E94E1081A8A198A1C8A1B8A65
:101690001E8A1D8A4AE0B7018D2D90E00E94360C0B
:1016A000F70101900020E9F731976F01CE18DF08AC
:1016B000B601CE0141960E941708811105C0CE01E6
:1016C00041960E946C0807C0DE8ACD8AB7018989DD
:1016D0009A890E94CA0E4D895E8969897A89CE01EC
:1016E00047960E943E0889899A890E94570DB5CF76
:1016F0006BE971E0C7010E947E084B8D5C8D6F899C
:10170000788DC7010E943E08811103C0C7010E9465
:101710006C084D815E8169817A8183E293E00E9449
:101720009E0661E571E083E293E00E94B908898139
:101730009A810E94570D8B8D9C8D892B01F1CF884A
:10174000D88C64EA71E0C6010E94C10E892B19F49D
:1017500080EB91E016C062EC71E0C6010E94C10E00
:10176000892B19F48CEC91E00CC06FED71E0C6018F
:101770000E94C10E892B19F488EE91E002C08CEF13
:1017800091E00E94CE0883E591E00E94CE0868EEC9
:1017900073E080E090E00E9471028F89988D0E9432
:1017A000570D0E94BF00EDCE80E592E00E94CE086A
:1017B000F8CFE3E2F3E01382128248EE53E060E0F8
:1017C00070E0448355836683778386E191E091835B
:1017D000808385EC90E09587848784EC90E0978700
:1017E000868780EC90E0918B808B81EC90E0938BEE
:1017F000828B82EC90E0958B848B86EC90E0978BCB
:10180000868B118E128E138E148EE0ECF3E016820E
:101810001782108611861286138614861586168600
:101820001786108A118A128A138A148A158AA8E2E6
:10183000B5E013961C921E92129714964D935D93E9
:101840006D937C93179788E291E011969C938E9309
:10185000E4E3F5E08AE391E091838083B383A2839C
:101860001482F0932705E09326050895BB27FB011A
:101870005527AA27880F991FAA1FA41710F0A41B89
:1018800083955051B9F7A05DAA3308F0A95DA193E3
:10189000009779F7B111B1931192CB010C94500CD0
:1018A000DC01FC01672F71917723E1F7329704C0C7
:1018B0007C916D9370836291AE17BF07C8F3089552
:1018C000A1E21A2EAA1BBB1BFD010DC0AA1FBB1F44
:1018D000EE1FFF1FA217B307E407F50720F0A21BB6
:1018E000B30BE40BF50B661F771F881F991F1A9423
:1018F00069F760957095809590959B01AC01BD014D
:10190000CF0108952F923F924F925F926F927F92F4
:101910008F929F92AF92BF92CF92DF92EF92FF92FF
:101920000F931F93CF93DF93CDB7DEB7CA1BDB0BAB
:101930000FB6F894DEBF0FBECDBF09942A88398850
:1019400048885F846E847D848C849B84AA84B98457
:10195000C884DF80EE80FD800C811B81AA81B98163
:10196000CE0FD11D0FB6F894DEBF0FBECDBFED0177
:101970000895EE0FFF1F0590F491E02D09940F9349
:101980001F93CF93DF938230910510F482E090E0B3
:10199000E0913B05F0913C0520E030E0A0E0B0E0B4
:1019A000309719F1408151810281138148175907FD
:1019B000C8F08417950769F4109731F012960C93CC
:1019C000129713961C9327C000933B0510933C0578
:1019D00022C02115310519F04217530718F49A0156
:1019E000BD01EF01DF01F801DBCF21153105F9F071
:1019F000281B390B2430310580F48A819B816115C5
:101A0000710521F0FB019383828304C090933C0510
:101A100080933B05FE01329644C0FE01E20FF31FA6
:101A20008193919322503109398328833AC02091C0
:101A3000390530913A05232B41F420910201309170
:101A4000030130933A05209339052091000130912C
:101A500001012115310541F42DB73EB74091040134
:101A600050910501241B350BE0913905F0913A05A1
:101A7000E217F307A0F42E1B3F0B2817390778F065
:101A8000AC014E5F5F4F2417350748F04E0F5F1FC4
:101A900050933A05409339058193919302C0E0E059
:101AA000F0E0CF01DF91CF911F910F910895CF9377
:101AB000DF93009709F481C0FC01329713821282F0
:101AC000A0913B05B0913C05109781F420813181B4
:101AD000820F931F2091390530913A052817390755
:101AE00051F5F0933A05E093390567C0ED0120E028
:101AF00030E0CE17DF0740F44A815B819E0141153B
:101B00005105F1F0EA01F5CFD383C28340815181C1
:101B1000840F951FC817D90759F488819981840FBC
:101B2000951F0296918380838A819B819383828310
:101B30002115310529F4F0933C05E0933B053DC0A8
:101B4000E901FB83EA8349915991C40FD51FEC1732
:101B5000FD0761F480819181840F951F0296E90150
:101B600099838883828193819B838A83E0E0F0E07C
:101B700012968D919C911397009719F0FD01DC014D
:101B8000F7CF8D919C9111979D012E5F3F4F820F52
:101B9000931F2091390530913A052817390769F4C8
:101BA000309729F410923C0510923B0502C0138235
:101BB0001282B0933A05A0933905DF91CF91089531
:101BC000A0E0B0E0E6EEFDE00C94860CEC0100979E
:101BD00021F4CB010E94BF0CB4C0FC01E60FF71F3B
:101BE0009C0122503109E217F30708F4A8C0D9017B
:101BF0000D911C91119706171707B0F005301105CC
:101C000008F49BC0C80104978617970708F495C08D
:101C100002501109061B170B019311936D937C93CE
:101C2000CF010E94570D89C05B01A01AB10A4C0177
:101C3000800E911EA0913B05B0913C05612C712C4A
:101C4000E12CF12C109709F446C08D919C911197CD
:101C5000A815B905B1F56C0142E0C40ED11CCA1437
:101C6000DB0478F14C018A189B08640142E0C40E41
:101C7000D11C1296BC9012971396AC91B5E0CB167E
:101C8000D10440F0B282A38391828082D9016D9306
:101C90007C9309C00E5F1F4F800F911FF901918344
:101CA0008083EB2DFA2FE114F10431F0D701139664
:101CB000FC93EE93129741C0F0933C05E0933B05F3
:101CC0003CC06816790608F43C017D0112960D901F
:101CD000BC91A02DB7CF8091390590913A05881617
:101CE0009906E1F466167706C8F480910001909198
:101CF0000101009741F48DB79EB7409104015091C6
:101D00000501841B950BE817F907C8F4F0933A0511
:101D1000E0933905F901718360830FC0CB010E9404
:101D2000BF0C7C01009759F0A801BE010E94B80EBB
:101D3000CE010E94570DC70104C0CE0102C080E051
:101D400090E0CDB7DEB7EEE00C94A20C81E090E01D
:101D5000F8940C94D10EFB01DC0104C08D9101902C
:101D6000801921F441505040C8F7881B990B089501
:101D7000FB01DC0102C001900D9241505040D8F7A8
:101D80000895FB01DC018D91019080190110D9F3B8
:101D9000990B0895FB01DC0101900D920020E1F701
:061DA0000895F894FFCF46
:101DA60000003D0580000000FFFF00000000FF006E
:101DB600FF000000000002029E0682004F02B300F0
:101DC6009100A500000000007B014E01AB0122013D
:101DD60046013201230100000000B001BE04D30316
:101DE600AB02564D4450565F317C315F564D4450E0
:101DF600560D0A0048656C6C6F2100466F756E645F
:101E0600206368697020504E35004669726D7761AF
:101E16007265207665722E200057616974696E6757
:101E260020666F7220616E2049534F31343434334B
:101E360041206361726400203078002C2076616C4A
:101E460075653D0031363531373732323538320037
:101E560054686973206973204B6579205461672E35
:101E660020003233303532323432360054686973EA
:101E76002069732043617264205461672E20003606
:101E86003331353632393500546869732069732029
:101E960050686F6E65205461672E20004920646F7C
:101EA6006E2774206B6E6F772E004469646E2774FC
:101EB6002066696E6420504E35337820626F6172F9
:101EC6006400466F756E6420612063617264210050
:101ED600554944204C656E6774683A200020627943
:101EE600746573005549442056616C75653A200047
:101EF60057616974696E6720666F7220612063613D
:061F060072642E2E2E0075
:00000001FF
